:1000000026C04AC049C048C047C0C2C245C044C05B
:1000100043C042C041C040C005C33EC03DC0008097
:10002000C0E0F0F8FCFEFF00000000370000000018
:100030000038000000000036000202020202020145
:100040000204081020010200000400004D041124E5
:100050001FBECFE5D2E0DEBFCDBF10E0A0E6B0E02E
:10006000E0E6FAE002C005900D92A036B107D9F79C
:1000700020E0A0E6B0E001C01D92AC37B207E1F786
:1000800010E0C7E2D0E003C02197FE01E1D4C63200
:10009000D107D1F7EAD2E2C4B3CF823081F018F4AD
:1000A000813051F00895833019F0843009F00895BB
:1000B0008CB58F7D8CBD08958AB58F7702C08AB5C7
:1000C0008F7D8ABD0895CF93DF93E9E4F0E08491BA
:1000D000E3E4F0E0D491EDE3F0E0C491CC2389F0C7
:1000E0008111DBDFEC2FF0E0EE0FFF1FED5CFF4F27
:1000F000A591B491EC91ED2381E090E021F480E0B2
:1001000002C080E090E0DF91CF9108951F93CF93DC
:10011000DF93282F30E0F901EB5BFF4F8491F90169
:10012000E15CFF4FD491F901E75CFF4FC491CC2310
:10013000C1F0162F8111B1DFEC2FF0E0EE0FFF1FA1
:10014000E35DFF4FA591B4918FB7F894111105C0ED
:100150009C91ED2FE095E92302C0EC91ED2BEC93FF
:100160008FBFDF91CF911F910895CF93DF9390E0E0
:10017000FC01E15CFF4F2491FC01E75CFF4F84919F
:10018000882361F190E0880F991FFC01E95DFF4F22
:10019000C591D491FC01E35DFF4FA591B49161112C
:1001A00009C09FB7F8948881209582238883EC91B9
:1001B0002E230BC0623061F49FB7F8943881822FF0
:1001C000809583238883EC912E2B2C939FBF06C0B0
:1001D0008FB7F894E8812E2B28838FBFDF91CF91C2
:1001E00008953FB7F8948091780090917900A0919C
:1001F0007A00B0917B0022B708B601FE05C02F3F00
:1002000019F00196A11DB11D3FBFBA2FA92F982F3C
:100210008827820F911DA11DB11DBC01CD0143E0B6
:10022000660F771F881F991F4A95D1F708958F92FF
:100230009F92AF92BF92CF92DF92EF92FF926B01AB
:100240007C01CFDF4B015C01C114D104E104F10456
:10025000E9F0C7DFDC01CB0188199909AA09BB09BC
:10026000883E9340A105B10578F321E0C21AD10878
:10027000E108F10888EE880E83E0981EA11CB11CED
:10028000C114D104E104F10421F7DECFFF90EF9017
:10029000DF90CF90BF90AF909F908F9008952FB731
:1002A000F89460917400709175008091760090913F
:1002B00077002FBF0895A895F89414BE81B5886182
:1002C00081BD11BC789408958091690090916A0075
:1002D000AC0156954795569547959C0163E0369538
:1002E00027956A95E1F72427352728273927AC0178
:1002F00075E0569547957A95E1F7242735272170C3
:100300003327309363002093620033272695379577
:10031000222796958795822B932B90936A00809342
:1003200069000895ABE6B0E0FD0181919081991FCD
:100330009927991F880F892B8D9380E0EE36F80757
:10034000A1F7089582E090E0009779F0FC01E5596B
:10035000FF4FDF0111972C91322F379533273795B7
:1003600020812695232B208307C020916B0030E04D
:100370003595279520936B00019730F708950F93DB
:100380001F93CF9383E087B9369A86B1C82FC07484
:1003900086FDFBCF64B185B170E0782B80E090E002
:1003A0002FEF30E040E050E09BD2B901CA012FEFBF
:1003B00033E040E050E078D22A3031054105510564
:1003C0002CF0309361002093600006C08AE090E03A
:1003D000909361008093600062DF0091640010914F
:1003E00065002091660030916700DC01CB01801B25
:1003F000910BA20BB30B409160005091610060E043
:1004000070E0481759076A077B0750F448DF60938C
:100410006400709365008093660090936700C1E06C
:100420008C2FCF911F910F910895EF92FF920F9310
:100430001F93CF93DF9360E082E068DE0EE610E06A
:10044000F801E2908F01C7E0D0E0F12CB7010C2E4B
:1004500002C0759567950A94E2F76170772780E08E
:1004600055DE61E081E052DE60E081E04FDE219701
:1004700068F7E0E00B361E0719F761E082E0DF91D4
:10048000CF911F910F91FF90EF9040CE813160F09E
:10049000E0EFE80FE93008F0E8E0F0E0E25EFF4F5F
:1004A000E491E0936D0004C010926D00893068F013
:1004B000E8EFE80FE93008F0E8E0F0E0E25EFF4F37
:1004C000E491E0936C0088E002C010926C00E82F89
:1004D000F0E0E25EFF4FE491E0936B00A6CF8091E5
:1004E0007200833091F08430E1F081111CC01092D1
:1004F0006B0010926C0010926D0097DF80B58F60DA
:1005000080BD80B58B7F80BD089580EE80936B00A9
:1005100010926C0010926D0088DF81E0809368007B
:10052000089588E1B3CF089580917200811103C0CE
:1005300080B5807F80BD809172008F5F853018F418
:100540008093720002C010927200C9CF0F931F9364
:10055000CF93DF93CBE6D0E003E308831CEC198351
:100560000A8363DF6AEF70E080E090E060DE18836A
:1005700009831A835ADF6AEF70E080E090E057DE6B
:10058000188219821A82DF91CF911F910F914DCF5E
:100590001F920F920FB60F9211242F933F938F93B8
:1005A0009F93AF93BF938091740090917500A09139
:1005B0007600B09177003091730026E0230F2D373D
:1005C00020F40296A11DB11D05C029E8230F039652
:1005D000A11DB11D2093730080937400909375004A
:1005E000A0937600B0937700809178009091790085
:1005F000A0917A00B0917B000196A11DB11D80935E
:10060000780090937900A0937A00B0937B00BF911B
:10061000AF919F918F913F912F910F900FBE0F90AF
:100620001F9018951F920F920FB60F9211242F93BF
:100630003F934F935F936F937F938F939F93AF936A
:10064000BF93EF93FF9337DEFF91EF91BF91AF918F
:100650009F918F917F916F915F914F913F912F91DA
:100660000F900FBE0F901F90189578948AB58260F6
:100670008ABD8AB581608ABD83B7826083BF83B734
:10068000816083BF89B7826089BF80B7826080BF85
:1006900080B7816080BF8CB580648CBD329A319AFE
:1006A0003098379A08DE61E081E05FDD61E080E04C
:1006B0005CDD61E082E059DD60E084E056DD1092AF
:1006C0006E0010926F0010927000109271001092E4
:1006D000640010926500109266001092670036DF89
:1006E000C2E3F2DDC150E9F781E080937200F7DEEA
:1006F00008E110E084E6E82EF12CD6E490E0C92E63
:1007000090E0D92EBB24B394C0917200C33018F48A
:10071000C13040F02FC0C33009F449C0C43009F4DF
:100720005EC079C0A895F89414BE81B5886181BD7A
:10073000D1BD7894A89585B7877E806185BF85B740
:10074000806285BF889585B78F7D85BF85B78F7D92
:1007500085BF6AE070E080E090E069DDB4DC892B61
:1007600009F459C0F3DE6AEF70E080E090E05FDDED
:10077000DBDE51C004DE882309F44DC056DEC130F3
:1007800011F4E0DD01C0CEDD9FDD90916900C13044
:1007900039F480916B0090FB87F980936B003BC02C
:1007A00080916D0090FB80F980936D0034C0E7DD8F
:1007B000882389F13ADE80916800882341F0C2DD08
:1007C00080916D00873039F51092680024C0AADD51
:1007D00080916B00803EF9F4B09268001CC0CFDDC0
:1007E0008823C9F080916B00811113C0809169004A
:1007F00090916A00B80118D149DE66DD80916900E8
:1008000090916A00B70110D1BC0180E090E00FDD4B
:100810005BDD88DD0ADE809172008823A9F153DC5C
:10082000892B51F180916E0090916F00A091700022
:10083000B0917100892B8A2B8B2B49F430DD6093AA
:100840006E0070936F00809370009093710027DDAD
:1008500040906E0050906F0060907000709071003A
:10086000DC01CB0184199509A609B70985369105E4
:10087000A105B10578F408C010926E0010926F00C7
:100880001092700010927100C114D10409F43CCF91
:10089000B7DB3ACF5BDE48DEF7CF81E090E09093A4
:1008A0006A00809369000895052E97FB16F4009462
:1008B0000FD057FD05D068D007FC02D046F408C021
:1008C00050954095309521953F4F4F4F5F4F08957C
:1008D00090958095709561957F4F8F4F9F4F0895AC
:1008E00068940013E894A0E0B0E0E8E7F4E01DC0ED
:1008F000EFEFE7F959016A015E23550FEE08FE2C70
:1009000087019B01AC019E23990F660B762FCB01CB
:100910005DD0CDB7DEB7EAE024C02F923F924F9270
:100920005F926F927F928F929F92AF92BF92CF927F
:10093000DF92EF92FF920F931F93CF93DF93CDB788
:10094000DEB7CA1BDB0B0FB6F894DEBF0FBECDBF00
:1009500009942A88398848885F846E847D848C84D1
:100960009B84AA84B984C884DF80EE80FD800C81DA
:100970001B81AA81B981CE0FD11D0FB6F894DEBFBD
:100980000FBECDBFED010895A1E21A2EAA1BBB1B1D
:10099000FD010DC0AA1FBB1FEE1FFF1FA217B3074B
:1009A000E407F50720F0A21BB30BE40BF50B661F61
:1009B000771F881F991F1A9469F760957095809525
:1009C00090959B01AC01BD01CF010895DF93CF93BA
:1009D0009F92A0E49A2E0024D001E001F001169528
:1009E0000795F794E794D794C794B794A79448F4DD
:1009F0001068A20FB31FC41FD51FE61FF71F081EE4
:100A0000191E220F331F441F551F661F771F881F93
:100A1000991F9A9421F79D01AE01BF01C0011124D5
:100A20009F90CF91DF910895AA1BBB1B51E107C096
:100A3000AA1FBB1FA617B70710F0A61BB70B881F6E
:100A4000991F5A95A9F780959095BC01CD010895FD
:100A5000EE0FFF1F0590F491E02D0994F894FFCF5D
:00000001FF
